:0400000080312828FB
:100008007E1480314E018F1E0A280B280E2882315B
:10001800C52280314E010F1E12281328162883315D
:10002800DE2380314E018F1F1A281B281E2882319B
:100038005F2280314E010F1F222823282628833172
:10004800FF2380317E10090080312A2885310F2551
:100058008031FB00853110258031FC008531112568
:100068008031EE00853112258031EF00F901FA0167
:10007800203084000030850042308431FE248031F5
:10008800A03084000030850012308431FE24803195
:100098007E10400184313F2C003407340E3409347B
:1000A8001C341B341234153438343F34363431346C
:1000B800243423342A342D34703477347E3479341C
:1000C8006C346B346234653448344F3446344134CC
:1000D800543453345A345D34E034E734EE34E9347C
:1000E800FC34FB34F234F534D834DF34D634D1342C
:1000F800C434C334CA34CD34903497349E349934DC
:100108008C348B3482348534A834AF34A634A1348B
:10011800B434B334BA34BD34C734C034C934CE343B
:10012800DB34DC34D534D234FF34F834F134F634EB
:10013800E334E434ED34EA34B734B034B934BE349B
:10014800AB34AC34A534A2348F348834813486344B
:10015800933494349D349A342734203429342E34FB
:100168003B343C34353432341F34183411341634AB
:10017800033404340D340A345734503459345E345B
:100188004B344C34453442346F346834613466340B
:10019800733474347D347A3489348E3487348034BB
:1001A800953492349B349C34B134B634BF34B8346B
:1001B800AD34AA34A334A434F934FE34F734F0341B
:1001C800E534E234EB34EC34C134C634CF34C834CB
:1001D800DD34DA34D334D43469346E34673460347B
:1001E800753472347B347C34513456345F3458342B
:1001F8004D344A344334443419341E3417341034DB
:10020800053402340B340C34213426342F3428348A
:100218003D343A34333434344E344934403447343A
:10022800523455345C345B347634713478347F34EA
:100238006A346D34643463343E343934303437349A
:10024800223425342C342B340634013408340F344A
:100258001A341D3414341334AE34A934A034A734FA
:10026800B234B534BC34BB349634913498349F34AA
:100278008A348D3484348334DE34D934D034D7345A
:10028800C234C534CC34CB34E634E134E834EF340A
:10029800FA34FD34F434F334400151080F39E800DE
:1002A8006808EC005108F039103EE8006808EB00D7
:1002B8005008031D60296129782902306C06031D46
:1002C8006629672978295208E800E9016808A20028
:1002D8006908A3005308E800E9016808E900E80193
:1002E8006808A2046908A30428305006031D7D2964
:1002F8007E29E22902306C06031D83298429AC2952
:100308005203031D88298929AC298030E800680830
:10031800BE006B080238E8006808BF001430E80027
:100328006808C0002830E8006808C1000430E80008
:100338006808E2003E308331892381314001E900B9
:100348006908C2000530E8006808A800AA01AA0ADE
:100358006C03031DB029B129E22920305206031D80
:10036800B629B729E2298030E8006808BE006B0882
:100378000338E8006808BF002930E8006808C000B2
:100388006E08E8006808C1006F08E8006808C20045
:100398000030EE001030EF000530E8006808E20099
:1003A8003E308331892381314001E9006908C30067
:1003B8000630E8006808A800AA01AA0A0800400157
:1003C800E4003C2AEE01EF015E2A0130EE00103015
:1003D800EF005E2A0230EE001030EF005E2A103087
:1003E800EE001030EF005E2A0830EE001030EF000B
:1003F8005E2A0430EE001030EF005E2A60302205DD
:10040800E20000302305E30040306206630403196C
:100418000E2A0F2AFD2960302205E200003023054C
:10042800E300603062066304031D1B2A1C2A5E2A4F
:10043800FD2960302205E20000302305E30040304A
:10044800620663040319292A2A2A372A60302205FA
:10045800E20000302305E300603062066304031DF8
:10046800362A372A5E2AFF30EE001030EF005E2A67
:100478006408E200E3016308003A0319442A5E2A8B
:100488006208003A0319E629013A0319E929033AEF
:100498000319EE29013A0319F329073A0319F82930
:1004A800013A0319FD29033A0319022A013A0319EB
:1004B8001D2A5E2A0800BF2A400126080319652A5A
:1004C800662A692A54011908BF2A54011908F50037
:1004D8007508F70055307706031D732A742A7C2A9D
:1004E8007B0A031D782A792A7C2AFB01F9015F2AF5
:1004F800FB1B7F2A802A5F2A7708F5007B08A03E2D
:1005080086008701750881000130F5007508FB0732
:1005180002307B06031D912A922AA12A1030770205
:100528000318972A982A9E2A7708033EF50075082B
:10053800F9005F2AFB01FB035F2A7B08F500F6013F
:10054800F51BF603790875067604031DAC2AAD2A57
:100558005F2A7908FF3EF5007508F000A030843165
:100568007B2482317706031DBA2ABB2A9E2A4001C2
:10057800A601A60A9E2A4E018F1BC32AC42A602AF6
:100588000800182B40012B080319CB2ACC2ACF2AA4
:1005980042011908182B42011D1DD32AD42AD82A32
:1005A8001908FC01FA01C52AFC1BDB2ADC2AC52A2A
:1005B8001908F6007608F8007808F6007C08503E1E
:1005C80086008701760881000130F6007608FC076E
:1005D80002307C06031DF12AF22AF92A78080F391D
:1005E800033EF6007608FA00C52A7C08F600F701F3
:1005F800F61BF7037A0876067704031D042B052BF0
:10060800C52A7A08F6007608F00050308331B42302
:100618008231003A031D112B122B152B4001AB011F
:10062800AB0AFC01FC03C52A4E018F1A1C2B1D2B9B
:10063800C62A080040012B080319232B242B2D2B35
:100648008131502183314001AB010330ED006D0849
:10065800A7002A080319312B322B3F2B2708031D2B
:10066800362B372B3F2B8431F02483318431CF2430
:1006780083314001AA0129082806031D442B452B74
:10068800542B42019E1C492B4A2B542B9E1E4D2B4A
:100698004E2B542B85310A2583318431F72483313D
:1006A800400127080319592B5A2B5C2B0130A7024C
:1006B800080085310425833140016308EA00620897
:1006C800E900AC010230E7006708AD006908E700FF
:1006D8006708AE006A08E7006708AF000430E70063
:1006E8006708E2002C308431202483314001E8007F
:1006F8006808B0000530E7006708A400A501553078
:1007080054019A004E01191708004001E600F33021
:10071800E3006308E700E501AC2B66088600870163
:1007280001086706E3006308E4000130E30063089A
:10073800E6076408503E840080300318013E8500B7
:100748000008E3006308E7000130E3006308E507F9
:1007580062086502031CB12BB22B912B67080800B5
:10076800F400F330F1007108F500F301D62B74089A
:100778008600870101087506F1007108F200013052
:10078800F1007108F4077208503E840080300318A5
:10079800013E85000008F1007108F5000130F10004
:1007A8007108F30770087302031CDB2BDC2BBB2BCF
:1007B80075080800F52B4001280829020318E52BC5
:1007C800E62BF32B29083E3E8600870101084201EB
:1007D8009A000130F00070084001A907F52B4E017E
:1007E80019124E010F1EF92BFA2BFE2B191AFD2B8D
:1007F800FE2BDF2B0800162C4001240825020318C5
:10080800062C072C142C25082C3E8600870101088D
:1008180054019A000130F00070084001A507162C19
:100828004E0119134E010F1F1A2C1B2C1F2C191BBC
:100838001E2C1F2C002C08004001E6005530E30058
:100848006308E500E401372C660886008701010883
:10085800E3006308E5070130E3006308E6070130B9
:10086800E3006308E40762086402031C3C2C3D2C87
:10087800282C650808008431992484318431E724C0
:1008880084318431DB2484318431C22484310B17D0
:100898008B174E018C1E512C522C4D2C8C1264003F
:1008A80083311E23843184315D2484314D2C803181
:1008B8002828400126080319622C632C682C8431EF
:1008C800B22484314001A6010130A0070030A13DC7
:1008D80088302006133003192106031D742C752C4B
:1008E8007A2CA001A10183315D2384310800F40032
:1008F8005530F1007108F300F201912C740886005C
:1009080087010108F1007108F3070130F10071084F
:10091800F4070130F1007108F20770087202031C35
:10092800962C972C822C73080800400198010830F7
:1009380092007E01B801113040019A0022309400E3
:100948007E01CE010F30A40015307D01CB0011309F
:100958007E01A00011307D01CD0008004101200377
:10096800031DB72CB82CC12C2103031DBC2CBD2C96
:10097800C12C22088131E32184310800013054015F
:100988009C00A0309B009F151E159D171D169E16D6
:100998004E019917080040011A1542019E164001A0
:1009A800A90142019E159A014E011916080001304D
:1009B80042019C00A0309B009F151E159D17843195
:1009C800F724843108004B019C017C309D0078306D
:1009D8009F0080309E00080040019A1542011D12B8
:1009E8004E019912080040019A1142011D164E014C
:1009F80099160800640080010131890BFF2C00342E
:100A080040012308E3002208E200080040011A110F
:0E0A180042019E120800FF34FF3400341034F7
:020000040001F9
:08000000FF3FFF3FFF3FFF3F00
:0A000E008C3FFF3FEA06FF3FFF3F73
:00000001FF
